:020000040800F2
:100000000000032081340008B53F0008B73F000816
:10001000B93F0008BB3F0008BD3F000800000000DA
:10002000000000000000000000000000BF3F0008CA
:10003000C13F000800000000C33F0008C53F0008A2
:10004000D1340008D1340008D1340008D13400087C
:10005000D1340008D1340008D1340008D13400086C
:10006000D1340008D1340008D1340008D13400085C
:10007000D1340008D1340008D1340008D13400084C
:10008000D1340008D1340008D1340008D13400083C
:10009000D1340008D1340008D1340008D13400082C
:1000A000D1340008D1340008D1340008D13400081C
:1000B000D1340008D1340008D1340008D13400080C
:1000C000D1340008D1340008D1340008D1340008FC
:1000D000D1340008D1340008D1340008D1340008EC
:1000E000D1340008D1340008D1340008D1340008DC
:1000F000D1340008D1340008D1340008D1340008CC
:10010000D1340008D1340008D1340008D1340008BB
:10011000D1340008D1340008D1340008D1340008AB
:10012000D1340008D1340008D1340008D13400089B
:10013000D1340008D1340008D1340008D13400088B
:10014000D1340008D1340008D1340008D13400087B
:10015000D1340008D1340008D1340008D13400086B
:10016000D1340008D1340008D1340008D13400085B
:10017000D1340008D1340008D13400080000000058
:10018000D1340008D1340008D1340008D13400083B
:10019000D1340008D1340008D1340008D13400082B
:0C01A000D1340008D1340008D13400082C
:1001B00010B5054C237833B9044B13B10448AFF3A1
:1001C00000800123237010BD180D002000000000E6
:1001D0000CC9000808B5034B1BB103490348AFF332
:1001E000008008BD000000001C0D00200CC90008A4
:1001F00009B900207047C0F3C613C0F38232D31888
:100200005943C91DC908420DC90002F00302430C3D
:10021000D14003F00F03042B0BD0082B01BFC0F318
:10022000C612C0F38230821801EB0221C91DC80832
:100230007047C0F3C612C0F38230821801EB02117E
:10024000C91DC808704710B5044609F0D7FD2046FF
:1002500010BDDFF81404016849084900016001205D
:10026000DFF80814886088680028FCD1DFF80024D3
:100270000A600868DFF8FC13884200D0FEE7A1A0FE
:100280007047DFF8E4030168490849000160012074
:10029000DFF8D813886088680028FCD1DFF8D02305
:1002A0000A600868DFF8CC13884200D0FEE70FF23E
:1002B000DC3210687047DFF8B00301684908490074
:1002C00001600120DFF8A413886088680028FCD151
:1002D000DFF89C230A600868DFF89813884200D092
:1002E000FEE70FF2AC3210687047DFF87C0301685C
:1002F0004908490001600120DFF8701388608868B0
:100300000028FCD1DFF868230A600868DFF864136E
:10031000884200D0FEE70FF27C321068704720B1AF
:100320000168DFF85423914200D00020DFF8381331
:100330000A68520852000A600121DFF830239160F8
:1003400091680029FCD1DFF8283313601168DFF8C9
:100350002423914200D0FEE77047DFF81C130160B0
:10036000704708467047704720B10168DFF80823DE
:10037000914200D00020BC490A68520852000A602D
:100380000121BA4A916091680029FCD1B84B1360F1
:100390001168B84A914200D0FEE700281CBF0C301B
:1003A00000F08AB90FF200300068704700281CBFC7
:1003B0000C3000F086B9704770B5049D044605986E
:1003C000DBB22D0445EA036545EA00250FF2DC2087
:1003D0000668A54801684908490001600120A34951
:1003E000886088680028FCD1A14B0B600868A1498F
:1003F000884200D0FEE71CB90FF2B420006870BD3F
:100400009D491160226000F055F910B90FF2882063
:100410000BE09A498D4228BF0FF2802005D20FF2DF
:10042000802000F063F918B99EA0066800212160C1
:10043000304670BD28B101688F4A914208BF02461C
:1004400000D0002288490B685B085B000B6001212B
:10045000864B996099680029FCD1DFF814C2C3F873
:1004600000C01968834B994200D0FEE702B100201A
:1004700070472DE9F04381B00A4618B101687E4B00
:10048000994200D0002078490B685B085B000B6044
:100490000121764B996099680029FCD1744C1C604D
:1004A0001968744B994200D0FEE740B30AB9112293
:1004B00006E0D16909B9132202E0D16841B91222DC
:1004C00010210C3000F0FDF8002001B0BDE8F083F1
:1004D00078CA00F1140100F1240781E8780092E85D
:1004E000005387E8005303218160C26B3AB19168E1
:1004F00050608A4218BF002918BF0A46F7D101B0E0
:10050000BDE8F083000000002DE9F04F83B028B172
:100510000368594CA34208BF054600D00025524845
:1005200003685B085B0003600120504B986098688B
:100530000028FCD14E4C1C6018684E4B984200D0ED
:10054000FEE7002D48D0AB6803F00300032802D07B
:10055000302211213CE00F001CBFF868002835D084
:10056000788808B9212232E014000BD0E16851B339
:10057000618811B9212213212AE0884202D0212268
:10058000022125E0D8054CBF02200020590A01F0C5
:10059000010141EA0008686BA96B066808680090D1
:1005A00071683068FFF724FE019000984168006888
:1005B000FFF71EFEF968002C024614BFD4F80CB0F9
:1005C0004FF0000B0CE01722132101E0172212213B
:1005D00005F10C0000F075F8002003B0BDE8F08FC5
:1005E00018F0020014BFDFF89890DFF898905FEAE7
:1005F000C8734CBFDFF888A0DFF88CA07B882B8203
:1006000000276F8208B9B160F16044B15FEAC87039
:1006100005D4009BC3F808B00098C0F80CB0688AF5
:100620002B8A98421CD22C463546019E1746884696
:10063000A86832464146C847A860B044204600F04A
:10064000D7F8009881683A465846D04700EB070B28
:10065000608A218A401C608280B28842E8D32546A5
:10066000688A03B0BDE8F08F002000E0003002404F
:10067000C2A507F4CDB5E8B50001C0A10100010194
:100680004702000863030008670300080303000033
:100690000100000001010000301000000110000006
:1006A0000384048402100000101000000000000009
:1006B00010100000012070470146002208680A60FF
:1006C000704703785FEA036C04D141EA02210160BC
:1006D000012070470020704710B50446E168884744
:1006E000A068A04208BF002010BD000000B581B086
:1006F00060B10178032909D15FF0040263A109F018
:10070000A9FB401E8041C00F01B000BD002001B018
:1007100000BD000042F21172811A012984BFC91E76
:100720000D2901D90F3945D1801A21D0401E21D081
:10073000801E21D0401E21D0401E21D0401E21D03D
:10074000401E21D0401E21D0401E21D0401E21D06D
:10075000401E21D0401E21D0401E21D0401E21D05D
:10076000401E21D0401E21D0801E21D012A07047F3
:1007700012A0704712A0704727A0704728A07047AA
:1007800010A0704710A0704727A070470FA07047B7
:1007900027A0704728A070472CA070472DA0704755
:1007A0000BA070472DA070472EA0704730A0704757
:1007B00034A0704700A0704700000000414444008E
:1007C000424E0000475255004C524E004E4C000025
:1007D000534D000042F21171401A012884BFC01E1F
:1007E0000D2801D90F3801D1012070470020704732
:1007F00030B5044681B0E06B58B12064256CE968DF
:1008000028468847A868A84208BF0020002820641E
:10081000F4D101B030BD0000434F4E5632440000C9
:1008200044454E53450000004C53544D0000000019
:100830004E4F524D000000004F5054494D495A450B
:10084000445F434F4E563244000000005045524D25
:1008500055544500504F4F4C0000000053504C4938
:100860005400000054494D455F44454C4159000037
:1008700054494D455F4449535452494255544544A7
:1008800000000000434F4E434154000003840484A1
:100890002DE9F04F81B00D9D139CDDF82C900E9E3C
:1008A0000A98DDF83CB0DDF840C0DDF844E0DDF842
:1008B00048802F1B09FB07FA371B07FB09F7009736
:1008C00088420CBF9FED860AB7EE000A05FB0CF5C7
:1008D00006FB09F706FB0C8606FB09F603EB86030D
:1008E0000C9EABEB0E0B04FB09F409FB05F5002E87
:1008F0000BFB07FB02EB85094ED00D46194632462D
:100900004FEA0003D3ED000ABEF1010F60EE800A4A
:100910004E4639DBDDF800C07046012C2CDB14F0AC
:1009200003080AD091ED001AD6ED001A361D091DF4
:10093000B8F1010841EE210AF4D1A70800F01C80AB
:1009400091ED002A96ED001AD1ED011AD6ED012A9B
:1009500042EE010A41EEA20A91ED022A96ED021A38
:10096000D1ED031AD6ED032A1036103142EE010AFA
:100970007F1E41EEA20AE3D1401E06EB8A0601EB80
:100980008C01CAD1CDF800C0C5ED000A2D1D1B1D7C
:10099000521E01EB8B01B5D101B0BDE8F08F000014
:1009A0002DE9F24F84B0149FDDF858B0119D1398D3
:1009B000159CDDF85CC0DDF83CA0109EDDF8489089
:1009C00009FB07BB114603EB8B0B0E9A049BA5EBAF
:1009D0000C0E001B9A420CBF9FED410AB7EE000AB5
:1009E0007D430AFB05F501EB8501002501EB8A0734
:1009F000B942B6FBFAF60AFB0EFEA9EB0C0800FBA7
:100A000009F0009768D20E920396039A002A5FD0ED
:100A1000049B0E9A029003EB8507039BCDF804100C
:100A200002EB8506D6ED000ADDF80490012C60EE9D
:100A3000800A41DB4FEA0402BCF1010F36DB1CF0F7
:100A400003010BD09BED001AD9ED001A491E41EEAF
:100A5000210A0BF1040B09EB8A09F3D15FEA9C0030
:100A600000F024809BED001AD9ED001A09EB8A01F1
:100A700041EE210ADBED011A91ED001A01EB8A012A
:100A800041EE810A9BED021AD1ED001A01EB8A01B9
:100A900041EE210ADBED031A91ED001A401E41EEF2
:100AA000810A0BF1100B01EB8A09DBD1521E09EB15
:100AB0008E090BEB880BBFD10298C7ED000A6D1CA5
:100AC0003F1D361D5B1E0BEB800BABD102980199CD
:100AD000009A091D914298D305B0BDE8F08F00003F
:100AE000000000002DE9F24F84B0DDF84CE0DDF8A5
:100AF00058C018981099129C159D0F9FAEEB0C0EC4
:100B00009246149AB1FBF2F91199CDF80C90091A9A
:100B100079431E46B7FBF2F304FB03FB0EFB0BFE0F
:100B2000DDF85CB0A7EB0309A4EB000804FB05B4F7
:100B30005C4306EB84040E9EDDF810B05E45119E0A
:100B40000CBF9FED3F0AB7EE000A75436F430AEBF7
:100B50008705002A08FB03F84FF0000A6CD00092CA
:100B6000039A002A62D00E9A049FCDF858C002EB77
:100B70008A06039ACDF808E007EB8A07CDF80450FF
:100B8000DDF858E0D6ED000A019DBEF1010F60EEE0
:100B9000800A3BDB012832DB4FEA000C05EB830BBC
:100BA0005D4527D294ED001AD5ED001A2D1D241DA8
:100BB0005D4541EE210A1DD294ED001AD5ED001AD3
:100BC0002D1D241D5D4541EE210A13D294ED001A1E
:100BD000D5ED001A2D1D241D5D4541EE210A09D2D7
:100BE00094ED001AD5ED001A2D1D241D5D4541EE32
:100BF000210AD7D3BCF1010C05EB8905CED1BEF19A
:100C0000010E05EB810504EB8804C3D1029DC7EDFD
:100C1000000A3F1D361D521E04EB85040AF1010A2D
:100C2000AED1DDF858C0DDF808E0019D009A521EF3
:100C300005EB8305009293D105B0BDE8F08F00006D
:100C4000000000002DE9F04F8DB0169C04B90C4651
:100C50001E9F1D9EDDF87080DDF880E01F9DDDF891
:100C600060C0DDF86490DDF868A0DDF86CB00B9032
:100C7000BF1B1798B8F1010FAEEB050E14D1CDF8DC
:100C800024E0089507970190CDF808C00696CDF8A6
:100C900014B0CDF810A0CDF80C9000940B98FFF78D
:100CA000F7FD0DB0BDE8F08F804514D1CDF824E0FC
:100CB000089507970190CDF808C00696CDF814B0B6
:100CC000CDF810A0CDF80C9000940B98FFF768FEBB
:100CD0000DB0BDE8F08FCDF828E009950897019098
:100CE000CDF808C00796CDF81880CDF814B0CDF82F
:100CF00010A0CDF80C9000940B98FFF7F3FE0DB008
:100D0000BDE8F08F70470000F0B40446049803EB90
:100D10008005203D08289FEDD90A2FD22035AB420F
:100D200024D2087893ED001A02EB8006181DD6ED48
:100D3000000AA84200EE810A18D24B7890ED001A02
:100D400002EB8306001DD6ED000AA84200EE810AE0
:100D50000CD28B7890ED001A02EB8306031DC91CA0
:100D6000D6ED000AAB4200EE810ADAD3D4ED000AD8
:100D700030EE800A84ED000AF0BC704701F00300F9
:100D80000328F3D8DFE800F00336414CEEE79D423C
:100D900080F0D5802035AB42E8D2087893ED001A78
:100DA00002EB8006181DD6ED000AA84200EE810A6B
:100DB000DCD24B7890ED001A02EB8306001DD6EDD5
:100DC000000AA84200EE810AD0D28B7890ED001A7A
:100DD00002EB8306031DC91CD6ED000AAB4200EEF0
:100DE000810ADAD3D4ED000A30EE800A84ED000ADD
:100DF000F0BC704711F8010B93ED001A02EB80066E
:100E00001B1DD6ED000A00EE810A11F8010B93EDCF
:100E1000001A02EB80061B1DD6ED000A00EE810AC7
:100E200011F8010B93ED001A02EB80061B1DD6EDA5
:100E3000000A9D4200EE810A4ED3CF7893ED004A1E
:100E400093ED013A93ED022A93ED031A02EB870624
:100E50008F78D6ED000A02EB87064F78D6ED001AA0
:100E600002EB87060F78D6ED002A02EB870603F126
:100E70001000D6ED003A0B7903EE840A02EE830AE5
:100E800001EE820A02EB830700EE810A4B79D7ED6F
:100E9000000A90ED004AD0ED013A90ED023AD0ED13
:100EA000032A02EB83078B7997ED001A02EB830785
:100EB000CB79D7ED001A02EB830700EE840A0831E4
:100EC00000F1100301EE230A97ED002A01EE830AD8
:100ED0009D4202EE220AB0D22035AB42BFF446AFAB
:100EE000087893ED001A02EB8006181DD6ED000A73
:100EF000A84200EE810ABFF439AF4B7890ED001A9A
:100F000002EB8306001DD6ED000AA84200EE810A1E
:100F1000BFF42CAF8B7890ED001A02EB8306031D13
:100F2000C91CD6ED000AAB4200EE810AD8D3D4ED3D
:100F3000000A30EE800A84ED000AF0BC7047CF78DA
:100F400093ED004A93ED013A93ED022A93ED031AD3
:100F500002EB87068F78D6ED000A02EB87064F7802
:100F6000D6ED001A02EB87060F78D6ED002A02EBC9
:100F7000870603F11000D6ED003A0B7903EE840AE0
:100F800002EE830A01EE820A02EB830700EE810A79
:100F90004B79D7ED000A90ED004AD0ED013A90ED83
:100FA000023AD0ED032A02EB83078B7997ED001A02
:100FB00002EB8307CB79D7ED001A02EB830700EE33
:100FC000840A083100F1100301EE230A97ED002A8C
:100FD00001EE830A9D4202EE220AB0D2DAE6000058
:100FE000F0B4049C65086D0003EB8505AB429FEDF2
:100FF000230A2FD211F8016B93ED002A93ED011A09
:1010000006F00F07360902EB860602EB8707D6EDDE
:10101000001AD7ED000A083301EE820AAB4200EE57
:10102000810A17D211F8016B93ED002A93ED011A92
:1010300006F00F07360902EB860602EB8707D6EDAE
:10104000001AD7ED000A083301EE820AAB4200EE27
:10105000810ACFD3E40709D5097893ED001A09096D
:1010600002EB8102D2ED000A00EE810AD0ED001AF7
:1010700031EE800A80ED000AF0BC704700000000ED
:101080002DE9F04F05469BB0686900680168426829
:1010900080680F68D2F800A0D0F800E04068BA6815
:1010A0000D920028DAF808300193DAF81010DAF817
:1010B0000C903C69D7F80C802B8C0C93AE8C0F965F
:1010C000EA6A2E8DDEF80C300E9392B2DEF808300C
:1010D00000933F68D7F808C0DEF80070D7F808E042
:1010E000AB691ABF006887680027DAF80000D0F8FB
:1010F00008A0E869002814BF0546DFF810575242DF
:1011000000290B926BD076421996CDF85890159421
:101110001091DDF838B00B9815990B9A169C199E12
:101120004042D8BF0020891A594528BF5946002C93
:1011300008FB02624BD00294CDF838B0019CDDF878
:1011400000901493CDF84CC0CDF848E0119718905A
:1011500017919346029F7042D8BF0020A8EB06016A
:10116000494528BF49460A910990CDF81090CDF81D
:101170000C80029458441799189A129B0891079270
:1011800014990E9A069105920D99119A0191009267
:101190000D9A1399504301EB800251460020FFF74E
:1011A00051FD224651465046A8470C9886197F1E8D
:1011B0000AEB840A8344CED10194CDF80090DDF887
:1011C00038B0149BDDF84CC0DDF848E0119F0B9956
:1011D0000F9A109C5118641E0B9110949BD11BB058
:1011E000BDE8F08F2DE9F04F0346B5B058690068AF
:1011F00001684268D1F800B017688068D0F800A094
:1012000044680BF1140191E864102DA880E8641083
:10121000DBF808000490B96803913869FA681B92FA
:10122000DBF810500D95DBF80C2002921D8C119507
:101230009A8C198D1091B3F82CC0D3F830E05D6B07
:10124000ADF804509E690C96DAF8081000919D6B79
:10125000DAF80C100F95DD6B1A951D6C19955D6C05
:101260001D953E6AD3F84880DD6C46430596002CF8
:10127000FE691896DBF80060B6681796DAF8006029
:10128000B6680B961ABF2468D4F808B04FF0000B6C
:10129000DC69002C12BF0E94DFF870450E941E6DB1
:1012A000009C16966D42029B3F68BDF80460A3EB5C
:1012B0000409109B119C994419FA8EF3D7F808E0A1
:1012C000059FB3FBF4F40D9B5B1A63449E19B6FBB8
:1012D000F2F3641C5B1C77440028159700F018811A
:1012E000C8F10008CDF8D0802A9314952490149B5F
:1012F000149D1A9E2A98002BD8BF00237519A84266
:1013000032BF0746149FF7191B98349D002800F040
:10131000F680DE1B3396CDF8ACC025942393289736
:10132000139522901398139B0F9C0028CCBF064660
:1013300000262598E318984232BF0346139BE31812
:101340003398F41A04FB00FA2398289CA042F04634
:101350004FF0000980F2C5802B9C239D2C925043B6
:10136000041B28982196451B1198279312941F95CA
:10137000129A0D9B129C279E5242D8BF00221B1B23
:101380008B423ABF0D9B1D1B0D46219C109B444375
:10139000E31A219CB44280F29980AD1A3295A6EBF3
:1013A000040C129D309E049C009FCDF898B07543AC
:1013B0003195CDF880A0039D029E11901C91CDF82F
:1013C000A4E01E929A46E346319ADDF8BCE0DAF1D9
:1013D0000001D8BF002101EB0A0C0EFB0C22A6EB8A
:1013E0000A00B84217980244269834BFA6EB0A03B5
:1013F0003B4608B94FEA0800DDF830E0DDF8C8C028
:101400005B1ABEF1010F12D108910993CDF81CC0EF
:101410001E9906911C9905910090049703960295D8
:10142000019441460B9B0020FFF732FA28E0A645C5
:1014300012D1099308910090CDF81CC0049703962F
:101440000295019400201C9B1E990593069141462C
:101450000B9BFFF7A5FA13E009910A930090CDF8D2
:1014600020C0049703960295019400201E990C9BBE
:10147000079106931C990B9B05914146FFF732FBA0
:101480000E9B2A464146404698472098DDF858C0B2
:1014900009F10109484518BF002000902B46299802
:1014A0002A464146E0471198DDF85480BBF1010B14
:1014B000824489D111981C99DDF898B0DDF8A4E038
:1014C000DDF880A00494039502960097129A2C9B55
:1014D0009A1812921F9A521E1F927FF449AF1190D0
:1014E0002C9A1398199B18181390229B18985B1E1E
:1014F000864422937FF416AFDDF8ACC0259C149B84
:101500001D9D249EEB18761E149324967FF4EFAE57
:1015100035B0BDE8F08F00002DE9F04F89B040698B
:101520000068016842688068D0F8008044680E68EE
:10153000D2F800E0DEF80C00DEF81020B568DEF826
:1015400008105043D8F8002013684FEA535AC3F3E9
:10155000C6190AF0030A5B0C002729FA0AF903F0FE
:101560000F03CDF80490042B366814BF082BD768FE
:10157000DEF80020D8F81830D2F80890B2680028B9
:1015800009EB810666D0CDF81C800594069104977E
:1015900000960390079801688868059909B10C685E
:1015A000A168049C002C009C10D1A14547D2A24602
:1015B0002E464F461C46904681460D46002D19BFCB
:1015C00055F8040B02900021029128E0A14536D283
:1015D000049C009F9846164682468B46BBF1000F3E
:1015E00019BF5BF8040B029000200290019900954E
:1015F000042933462246514602A803D1FFF7F0FCE6
:1016000002E000BFFFF780FB029849F8040BB945E0
:10161000C244E3D304944346324600970FE0334676
:101620004246494602A800F0F5FF029847F8040B2D
:101630005745A144C2D335462346B9464246009891
:10164000069900EB810403980094401E02EB85028A
:1016500003909FD109B0BDE8F08F00002DE9F04F55
:101660008AB015468B469A46149BD0F804C0696828
:1016700000915C680294B3F8009004885E8840880A
:10168000BBF80010BBF80220B5F800E06F88DBF86B
:1016900004300593049300254FFA8AF3002B0CBF06
:1016A000A0468046012F0CBF00230423BEF1010F8A
:1016B00004D1012F07D0C6F1000E05E0012F08BFAD
:1016C0004FF0010E00D0AE460FFA8EF701974FFA99
:1016D0008AF7002F0CBFA3468346CB4515D19DF951
:1016E0004CE0BEF1000F0CBF91468946B1450CD1CC
:1016F0004FFA8AF6002E0CBF8346A346BEF1000FB8
:101700000CBF0E461646B3456CD06FF002000AB00F
:10171000BDE8F08F059D9700089786000796CDF8E5
:1017200018C0ADF802404446DDF810C04FFA8AF602
:10173000DDF81880002E9FED341A0CBF0646BDF868
:101740000260B6B14FFA8AF7002F0CBF0427079F3B
:10175000BEF1000FD8ED001A95ED002AB8440CBF79
:10176000089F0427ED19761EB7B2002F01EE821AEA
:10177000E8D120EE011ADBED001A641E00EEA11A7A
:10178000A4B2BEF1000F89ED001A0EBF151B0D1B90
:101790005543002C09F104099B440CEB8505C5D188
:1017A000DDF80C90069DBDF80240CDF810C0099EF2
:1017B0004E4403964FFA8AF6002E0CBF4FEA800C77
:1017C0004FF0040CAC44019D0BEB850BBDF80050B1
:1017D0006E1EADF80060BDF8005055B900200AB08B
:1017E000BDE8F08FDDF800B00395ADF80080CDF8CE
:1017F000249003AE029D3688BEF1000F05EB8609EA
:101800000CBF9046884685E700000000050D0008E3
:10181000F0B58BB0416909680A68496809680D68C4
:10182000146853689268AD68CE680F690995ADF881
:101830002070ADF822602568E668AD682469ADF8CF
:101840001840ADF81A6007951C68DD68A4681B692C
:10185000ADF81030ADF8125005941368D4689B6849
:101860001269ADF80820ADF80A4008AA0393019266
:1018700002AA90F92110009104A990F92030D0ED2E
:10188000070A90ED060A06A8FFF7E8FE0BB0F0BDC8
:101890002DE9F0410F4614462DED028B022C064631
:1018A00097ED008ADFEDC38A3DD3611E3A1D11F02A
:1018B00003000CD092ED000AB4EE480AF1EE10FAE3
:1018C00058BFB0EE408A401E02F10402F2D18908EE
:1018D00000F02B8092ED000AB4EE480AF1EE10FA07
:1018E00058BFB0EE408A92ED010AB4EE480AF1EE1C
:1018F00010FA58BFB0EE408A92ED020AB4EE480AE0
:10190000F1EE10FA58BFB0EE408A92ED030AB4EE41
:10191000480AF1EE10FA58BFB0EE408A491E02F1B3
:101920001002D7D101E0002C40D0B0464FEA0405A8
:1019300097ED000A30EE480A07F058FA3F1D88ED8F
:10194000000A6D1E78EE808A08F10408F0D1B7EE27
:10195000000A14F0030080EE280A09D0D6ED000A30
:1019600060EE800AC6ED000A401E06F10406F5D1BD
:10197000A4081BD0D6ED000A60EE800AC6ED000A6E
:10198000641E96ED011AD6ED020A21EE001A86EDCC
:10199000011A60EE800A96ED031AC6ED020A21EEE6
:1019A000001A86ED031A06F11006E3D1BDEC028B96
:1019B000BDE8F0812DE9F04381B00C4604EB8209CB
:1019C000089E099F4C4580461D460AD22A4621465C
:1019D0004046FFF75DFF04EB86044C4508EB8708A3
:1019E000F4D301B0BDE8F08370B50D4605EB820677
:1019F000B542044680F00A8095ED000A07F09EF992
:101A000084ED000A241D2D1DB542F5D370BD0000E4
:101A100070B50D4605EB8206B542044680F0148091
:101A200095ED000AB1EE400A07F0E0F9F7EE000A82
:101A300070EE200AB7EE000A80EE200A84ED000A5C
:101A4000241D2D1DB542EBD370BD000001EB8202B9
:101A5000914216D24FF0FF3391ED000AB5EE400AE5
:101A6000F1EE10FACCBF9FEDC60A00EE103A091D48
:101A70008446B8EEC00A91420CF104008CED000AD5
:101A8000EAD3704701EB8202914216D2034691EDF0
:101A9000001A181DB4EE410AF1EE10FA58BFB0EE6C
:101AA000401AB4EE601AF1EE10FA58BFB0EE601AA8
:101AB000091D914283ED001AE8D3704701EB8202C1
:101AC00091420FD2034691ED000A181DB5EE400A6F
:101AD000F1EE10FAD8BF9FED370A091D914283ED50
:101AE000000AEFD37047000001EB820291421AD244
:101AF000B1EE080A0346D1ED000A181DF5EE400AC2
:101B0000F1EE10FA08DDF4EE400AF1EE10FA58BFDB
:101B1000F0EE400A02E000BFDFED260A091D914207
:101B2000C3ED000AE6D37047F0B581B00D4605EB72
:101B300082062DED048BB5420446F0EE408AB0EEED
:101B4000608A32D2274695ED009A3C1DB5EE409A48
:101B5000F1EE10FA4CBFDFED179AF0EE499AB0EEB5
:101B6000490A07F043F9FFEE000A30EE200A20EEA2
:101B7000280AB5EE400AF1EE10FA05DD9FED0D1AC8
:101B800079EE819A0AE000BFB0EE490A07F02EF91B
:101B9000FFEE000A30EE200A40EE289A2D1D28EEB6
:101BA000290AB54287ED000ACCD3BDEC048B01B005
:101BB000F0BD00000000000001EB8303994220D239
:101BC00091ED000A92ED001AB5EE400AF1EE10FA1E
:101BD0004CBFDFEDA50AF0EE400AB1EE400AB5EECB
:101BE000400AF1EE10FA48BF9FED9F0A091D121D31
:101BF000844641EE400A99420CF10400CCED000A03
:101C0000DED37047406903681968D1F800C0DCF87A
:101C10000420DCF80800DCF80C104243DCF810006B
:101C2000DCF800C04A4359680B684243DCF80800FE
:101C3000D3F800C0DCF8081000EB820290420FD20B
:101C40000B4690ED000A191DB5EE400AF1EE10FAB0
:101C5000D8BF9FED850A001D904283ED000AEFD3A7
:101C600070470000406903681968D1F800C0DCF8CB
:101C70000420DCF80800DCF80C104243DCF810000B
:101C8000DCF800C04A4359680B684243DCF808009E
:101C9000D3F800C0DCF8081000EB820290421AD2A0
:101CA000B1EE080A0B46D0ED000A191DF5EE400A08
:101CB000F1EE10FA08DDF4EE400AF1EE10FA58BF2A
:101CC000F0EE400A02E000BFDFED670A001D90421F
:101CD000C3ED000AE6D37047F0B581B02DED048B5B
:101CE000416990ED078A0D68D0ED068A2A6814686C
:101CF00020686368A168E2684B432169846868686A
:101D000053434B4301680A68956804EB8306B44269
:101D100031D22F4694ED009A3D1DB5EE409AF1EE7A
:101D200010FA4CBFDFED509AF0EE499AB0EE490A36
:101D300007F05CF8FFEE000A30EE200A20EE280AD9
:101D4000B5EE400AF1EE10FA04DD9FED471A79EE88
:101D5000819A09E0B0EE490A07F048F8FFEE000A60
:101D600030EE200A40EE289A241D28EE290AB442BB
:101D700087ED000ACDD3BDEC048B01B0F0BD0000AF
:101D80000100000030B441690C68226815686B6876
:101D9000A968EA6880694B4329692D6853436268E2
:101DA00014684B43A96825680468AA68A06801EB19
:101DB000830399421FD2144691ED000A221DB5EE0D
:101DC000400AF1EE10FA4CBFDFED270AF0EE400AB0
:101DD000B1EE400AB5EE400AF1EE10FA48BF9FEDB1
:101DE000220A90ED001A091D001D41EE400A994299
:101DF000C4ED000ADFD330BC7047000040690368BF
:101E00001968D1F800C0DCF80420DCF80800DCF820
:101E10000C104243DCF81000DCF800C04A4359685B
:101E20000B684243DCF80800D3F800C0DCF8081067
:101E300000EB8202904216D24FF0FF3390ED000A81
:101E4000B5EE400AF1EE10FACCBF9FED080A00EEA5
:101E5000103A001D8C46B8EEC00A90420CF1040105
:101E60008CED000AEAD3704700000000010000007A
:101E700030B4416990ED070A0C68D0ED060A22687B
:101E800015686B68A968EA68286880684B43296907
:101E900053434B4361680A681468A16800EB8302EE
:101EA000904216D20B4690ED001A191DF4EE410A2D
:101EB000F1EE10FA58BFB0EE601AB4EE401AF1EE2F
:101EC00010FA58BFB0EE401A001D904283ED001A80
:101ED000E8D330BC7047000070B5406903681968EA
:101EE0000C686268A068E168424320692468A468BD
:101EF0004A434243586801680B689D6804EB8206B8
:101F0000B44213D294ED000AB1EE400A06F06EFF1F
:101F1000F7EE000A70EE200AB7EE000A80EE200A03
:101F200085ED000A2D1D241DB442EBD370BD0000C9
:101F300070B54069036819680C686268A068E16858
:101F4000424320692468A4684A43424358680168B0
:101F50000B689D6804EB8206B44209D294ED000A36
:101F600006F0ECFE85ED000A2D1D241DB442F5D3CC
:101F700070BD30B583B04069046821680D68AA68F7
:101F80000192009213466868E968424328692D6807
:101F90004A43424360680468A9682568A868FFF757
:101FA00009FD03B030BD000070B401EB8204A14212
:101FB00057D2002B51D013F003020D46064611D024
:101FC00096ED000AD5ED000AF4EE400AF1EE10FAA3
:101FD00058BFB0EE600A86ED000A521E361D2D1D58
:101FE000002AEDD19A0838D0D5ED000AD6ED001AB6
:101FF000F4EE610AF1EE10FA48BFF0EE610AC6EDA8
:10200000000AD5ED010AD6ED011A96ED020AF4EEAA
:10201000610AF1EE10FA48BFF0EE610AC6ED010A5E
:1020200095ED021AD6ED031AB4EE401AF1EE10FA4D
:1020300048BFB0EE401A86ED021AD5ED030AF4EE61
:10204000610AF1EE10FA58BFF0EE601AC6ED031AFD
:10205000521E10361035002AC6D101EB8301A14271
:10206000A7D370BC7047000070B401EB8204A1429A
:102070004FD2002B49D013F003020D4606460ED076
:1020800095ED000A88421CBFD6ED000A30EE800AAA
:1020900086ED000A521E361D2D1D002AF0D19A0829
:1020A00033D08842D5ED001A0CD1C6ED001A95ED5B
:1020B000010A86ED010AD5ED021AC6ED021AD5ED28
:1020C000031A1BE0D6ED000A30EEA10A86ED000AE5
:1020D00096ED011A95ED010AD6ED021A31EE000ACD
:1020E00086ED010AD5ED020A31EEA00A86ED020A5C
:1020F00096ED030A95ED031A70EE011AC6ED031A68
:10210000521E10361035002ACBD101EB8301A142BB
:10211000AFD30399A1B300EE101AB8EE400AF7EE60
:10212000000A80EE800A5BB313F0030100F00A801E
:10213000D0ED000A60EE800AC0ED000A491E00F1F1
:102140000400F5D19B081BD0D0ED000A60EE800A98
:10215000C0ED000A5B1E90ED011AD0ED020A21EEDF
:10216000001A80ED011A60EE800A90ED031AC0EDAE
:10217000020A21EE001A80ED031A00F11000E3D1EB
:1021800070BC70472DE9F04F03468EB05869006867
:10219000016840680C68076821693D690991FA681F
:1021A0000892D4F80C80A1689A69D86907905E6A91
:1021B000186A0D963F682468D7F808E0DF6A9E6ABF
:1021C000A4687F42002D009700F0D98001957642E7
:1021D0000C9601FB08F50B95009D009B009F6D423E
:1021E000099DCCBF0026009EEB1A079DAB4288BF1D
:1021F0002B46DF19089B0C9D002B00F0B78008FBD5
:1022000006FACDF828A0CDF80C800292069005962B
:1022100004976842039F029ADDF82C80CCBF00200F
:1022200028467F1B974288BF17460A9A7F193F1A94
:10223000801848434F4304EB800C11B311F00300A6
:102240007246664600F0068056F8049B42F8049BEE
:10225000401EF9D1880814D096ED000A82ED000ADC
:10226000401ED6ED010AC2ED010A96ED020A82ED8A
:10227000020AD6ED030AC2ED030A10321036002816
:10228000EAD10598049A904266DA1046059A821AB5
:10229000E2460AEB870BDA455AD2002954D011F0F6
:1022A00003005646F14612D099ED000AD6ED000A19
:1022B000F4EE400AF1EE10FA58BFB0EE600A401E8C
:1022C000361D89ED000A002809F10409ECD18808BF
:1022D00000F03A80D6ED000AD9ED001AF4EE610A5A
:1022E000F1EE10FA48BFF0EE610AC9ED000AD6ED32
:1022F000010AD9ED011A99ED020AF4EE610AF1EE34
:1023000010FA48BFF0EE610AC9ED010A96ED021A13
:10231000D9ED031AB4EE401AF1EE10FA48BFB0EE50
:10232000401A89ED021AD6ED030AF4EE610AF1EEC5
:1023300010FA58BFF0EE601A401E1036C9ED031AAD
:10234000002809F11009C5D10AEB810ADA45A4D3A6
:10235000521E0CEB880C9BD1069845195B1E0EEBA8
:10236000810E7FF456AFDDF80C80029A009D0D9B24
:102370005D190095019D6D1E01957FF42DAF0EB086
:10238000BDE8F08F2DE9F04F94B0416909680A6803
:10239000496815680E682A6933690C92F4680B94D1
:1023A000EA68A968D0F81880C4690A94D0F820C0F7
:1023B000476A13972D68876A3468C06AD5F808E0C1
:1023C000D4F808904042002B019000F020817F4219
:1023D00001FB02F403931297119401980C9B019E48
:1023E000129C40420198CCBF0027019F181A0A9BFB
:1023F000984288BF184686190B98002800F0FE8086
:10240000054602FB07F010900592B81B0F90CDF81F
:102410001080CDF824C0CDF820E0079706960094F0
:1024200002950098059ADDF800E0119C4042009862
:10243000CCBF4FF0000CDDF800C0101A049A904297
:1024400088BF104686440F98109AACEB0E054543A2
:10245000089862444A43AEEB0C0600EB82074E43F9
:10246000002289B111F003004B4603D0401E43F80F
:10247000042BFBD1880807D01A605A609A60DA6092
:10248000401E03F11003F7D10798069B984280F293
:10249000A3801B1AAEEB0C000D900E9494460D9881
:1024A00084446545BE460CBF2C4600240EEB8608CE
:1024B000C6454ED20022002947D011F00300F24653
:1024C000CB4610D09AED000AF1451CBFDBED000AA7
:1024D00030EE800A521C8BED000A401E0BF1040BFB
:1024E0000AF1040AEED1880800F02F800EEB820A70
:1024F00009EB8202DAED001AF1451CBF92ED000AE9
:1025000070EE211AC2ED001ADAED011A1CBFD2EDED
:10251000010A70EEA11AC2ED011A9AED021A1CBF4F
:1025200092ED020A30EE011A82ED021ADAED031A78
:102530001CBFD2ED030A70EEA11AC2ED031A401EB1
:10254000103200280AF1100AD4D10EEB810EC645D4
:10255000B0D3002C3AD000EE104AB8EE400AF7EEA5
:10256000000A80EE800A002281B311F003004C467D
:1025700000F00B80D4ED000A60EE800A521CC4ED1E
:10258000000A401E04F10404F4D1880800F01E8003
:1025900009EB8202D2ED000A60EE800AC2ED000A69
:1025A000401E92ED011AD2ED020A21EE001A82EDD0
:1025B000011A60EE800A92ED031AC2ED020A21EEC2
:1025C000001A82ED031A02F11002E3D10E985B1E8D
:1025D00007EB80077FF463AF0098099A101800900A
:1025E00009EB81090298401E02907FF41AAF059A08
:1025F000DDF81080DDF824C0DDF820E0019C139B9D
:102600001C190194039C641E03947FF4E6AE14B07D
:10261000BDE8F08F30B50446084681B011461A4631
:10262000002500956B4603F01DFA94ED000ADDEDE0
:10263000000A70EE200AC4ED000A01B030BD0000AF
:10264000F0EE400AF5EE400AF1EE10FA9FED280A8E
:1026500001DBB1EEE00A704706F0C8BB06F044BCEF
:1026600006F06CBBB5EE400AF1EE10FAD8BF9FED54
:10267000200A7047B5EE400AF1EE10FAD8BF20EEFE
:10268000200A704700B581B0B1EE400A06F0AEFBFB
:10269000F7EE000A30EE200AB7EE001A81EE000ACB
:1026A00001B000BDF0EE400A9FED121AB6EE000A2E
:1026B00000EE810ADFED100AB4EE600AF1EE10FAC6
:1026C00007DAB5EE400AF1EE10FA04D59FED080ADC
:1026D0007047B7EE000A7047B5EE400AF1EE10FA07
:1026E000CCBF9FED060A9FED060AB8EEC00A704700
:1026F00000000000CDCC4C3E0100803F01000000F6
:10270000FFFFFFFF81F0004102E000BF83F00043C4
:1027100030B54FEA41044FEA430594EA050F08BF7C
:1027200090EA020F1FBF54EA000C55EA020C7FEA40
:10273000645C7FEA655C00F0E2804FEA5454D4EBBD
:102740005555B8BF6D420CDD2C4480EA020281EA87
:10275000030382EA000083EA010180EA020281EABF
:102760000303362D88BF30BD11F0004F4FEA013111
:102770004FF4801C4CEA113102D0404261EB410120
:1027800013F0004F4FEA03334CEA133302D05242A6
:1027900063EB430394EA050F00F0A780A4F1010462
:1027A000D5F1200E0DDB02FA0EFC22FA05F280189C
:1027B00041F1000103FA0EF2801843FA05F3594182
:1027C0000EE0A5F120050EF1200E012A03FA0EFC01
:1027D00028BF4CF0020C43FA05F3C01851EBE3712B
:1027E00001F0004507D54FF0000EDCF1000C7EEB48
:1027F00000006EEB0101B1F5801F1BD3B1F5001F86
:102800000CD349085FEA30004FEA3C0C04F10104A4
:102810004FEA445212F5800F80F09A80BCF1004FCD
:1028200008BF5FEA500C50F1000041EB045141EA4F
:10283000050130BD5FEA4C0C404141EB010111F450
:10284000801FA4F10104E9D191F0000F04BF0146FB
:102850000020B1FA81F308BF2033A3F10B03B3F1D9
:1028600020020CDA0C3208DD02F1140CC2F10C0269
:1028700001FA0CF021FA02F10CE002F11402D8BFC7
:10288000C2F1200C01FA02F120FA0CFCDCBF41EA93
:102890000C019040E41AA2BF01EB0451294330BD62
:1028A0006FEA04041F3C1CDA0C340EDC04F114043F
:1028B000C4F1200220FA04F001FA02F340EA030016
:1028C00021FA04F345EA030130BDC4F10C04C4F15C
:1028D000200220FA02F001FA04F340EA030029463C
:1028E00030BD21FA04F0294630BD94F0000F83F486
:1028F000801306BF81F480110134013D4EE77FEA69
:10290000645C18BF7FEA655C29D094EA050F08BFB4
:1029100090EA020F05D054EA000C04BF1946104695
:1029200030BD91EA030F1EBF0021002030BD5FEAD9
:10293000545C05D14000494128BF41F0004130BD01
:1029400014F580043CBF01F5801130BD01F0004555
:1029500045F0FE4141F470014FF0000030BD7FEAC8
:10296000645C1ABF194610467FEA655C1CBF0B46C3
:10297000024650EA013406BF52EA033591EA030FDA
:1029800041F4002130BD00BF90F0000F04BF0021D2
:10299000704730B54FF4806404F132044FF0000505
:1029A0004FF0000150E700BF90F0000F04BF00217E
:1029B000704730B54FF4806404F1320410F00045E4
:1029C00048BF40424FF000013EE700BF42004FEADF
:1029D000E2014FEA31014FEA02701FBF12F07F435C
:1029E00093F07F4F81F06051704732F07F4208BF13
:1029F000704793F07F4F04BF41F40021704730B51A
:102A00004FF4607401F0004521F000411CE700BF65
:102A100050EA010208BF704730B54FF000050AE0E8
:102A200050EA010208BF704730B511F0004502D5E9
:102A3000404261EB41014FF4806404F132045FEAEB
:102A4000915C3FF4D8AE4FF003025FEADC0C18BF94
:102A500003325FEADC0C18BF033202EBDC02C2F186
:102A6000200300FA03FC20FA02F001FA03FE40EA18
:102A70000E0021FA02F11444BDE600BF4FEA410204
:102A8000B2F1E04324BFB3F5001CDCF1FE5C0DD9CC
:102A900001F0004C4FEAC0024CEA5070B2F1004F16
:102AA00040EB830008BF20F00100704711F0804F19
:102AB00021D113F13872BCBF01F00040704741F4DE
:102AC00080114FEA5252C2F11802C2F1200C10FAE2
:102AD0000CF320FA02F018BF40F001004FEAC123C6
:102AE0004FEAD32303FA0CFC40EA0C0023FA02F36A
:102AF0004FEA4303CCE77FEA625307D150EA013340
:102B00001EBF4FF0FE4040F44000704701F000400F
:102B100040F0FE4040F40000704700BF53B94AB98E
:102B2000002908BF00281CBF4FF0FF314FF0FF30D5
:102B300000F072B9ADF1080C6DE904CE00F006F8B2
:102B4000DDF804E0DDE9022304B070472DE9F04729
:102B5000089E04468846002B4BD18A42154667D909
:102B6000B2FA82F24AB1C2F1200701FA02F320FA66
:102B700007F7954047EA030894404FEA154E230CA7
:102B8000B8FBFEF71FFA85FC0EFB178843EA0843E3
:102B900007FB0CF1994209D9EB1807F1FF3080F0DF
:102BA0001B81994240F21881023F2B445B1AA4B268
:102BB000B3FBFEF00EFB103344EA034400FB0CFCB5
:102BC000A44509D92C1900F1FF3380F00781A445F1
:102BD00040F2048102382C4440EA0740A4EB0C0484
:102BE00000271EB1D4400023C6E900433946BDE8A2
:102BF000F0878B4209D9002E00F0EB800027C6E950
:102C0000000138463946BDE8F087B3FA83F7002F54
:102C100047D18B4202D3824200F2FA80841A61EBE0
:102C2000030301209846002EE0D0C6E90048DDE706
:102C300002B9FFDEB2FA82F2002A40F08F80491B0F
:102C40004FEA154E1FFA85F80127B1FBFEFC230C55
:102C50000EFB1C1143EA014308FB0CF1994207D912
:102C6000EB180CF1FF3002D2994200F2CD8084467D
:102C7000591AA3B2B1FBFEF00EFB101443EA044450
:102C800008FB00F8A04507D92C1900F1FF3302D248
:102C9000A04500F2B6801846A4EB080440EA0C40B8
:102CA0009FE7C7F1200CBB4022FA0CFE4EEA030E50
:102CB00001FA07F420FA0CF521FA0CF34FEA1E484A
:102CC0002543B3FBF8F92C0C08FB19331FFA8EFAD5
:102CD00044EA034309FB0AF49C4202FA07F200FAB1
:102CE00007F10BD91EEB030309F1FF3080F0878059
:102CF0009C4240F28480A9F1020973441B1BADB2CF
:102D0000B3FBF8F008FB103345EA034400FB0AFA72
:102D1000A24508D91EEB040400F1FF336BD2A24593
:102D200069D90238744440EA0940A0FB0289A4EB47
:102D30000A044C45C2464B4654D351D0002E69D0AC
:102D4000B1EB0A0564EB030404FA0CFCFD40FC4003
:102D50004CEA0505C6E90054002747E7C2F1200305
:102D600020FA03F7954001FA02F021FA03F34FEA43
:102D7000154E3843010CB3FBFEF71FFA85F80EFB26
:102D8000173341EA034107FB08F38B4204FA02F4CC
:102D900007D9691807F1FF3C2FD28B422DD9023F8A
:102DA0002944CB1A81B2B3FBFEF00EFB103341EA8B
:102DB000034100FB08F38B4207D9691800F1FF3C7F
:102DC00017D28B4215D902382944C91A40EA07475D
:102DD0003BE73746304609E70746E7E61846FBE695
:102DE0004145ABD2B8EB020A69EB0E02013813463B
:102DF000A4E76046E9E7184695E76746D1E78146CC
:102E00007CE702382C4447E7ACF1020C2B442FE757
:102E1000384608E73746E9E6704700BF034613F82F
:102E2000012B002AFBD1181A01387047000000005E
:102E300001F0FF01102A2BDB10F0070F08D010F86B
:102E4000013B013A8B422DD010F0070F42B3F6D16F
:102E5000F0B441EA012141EA014122F007047FF088
:102E600000070023F0E80256083C85EA010586EADF
:102E7000010685FA47F5A3FA87F586FA47F6A5FA1B
:102E800087F68EB9EED1F0BC01F0FF0102F0070227
:102E900032B110F8013B013A83EA010313B1F8D1D2
:102EA0000020704701387047002D06BF35460338B3
:102EB000073815F0010F07D1013015F4807F02BFEC
:102EC000013015F4C03F0130F0BC0138704700BF3D
:102ED00070B54FF0FF0C4CF4E06C1CEA11541DBFB0
:102EE0001CEA135594EA0C0F95EA0C0F00F0DEF87B
:102EF0002C4481EA030621EA4C5123EA4C5350EA60
:102F0000013518BF52EA033541F4801143F48013B0
:102F100038D0A0FB02CE4FF00005E1FB02E506F041
:102F20000042E0FB03E54FF00006E1FB03569CF096
:102F3000000F18BF4EF0010EA4F1FF04B6F5007F9C
:102F400064F5407404D25FEA4E0E6D4146EB06060E
:102F500042EAC62141EA55514FEAC52040EA5E5097
:102F60004FEACE2EB4F1FD0C88BFBCF5E06F1ED841
:102F7000BEF1004F08BF5FEA500E50F1000041EB78
:102F8000045170BD06F0004646EA010140EA020025
:102F900081EA0301B4EB5C04C2BFD4EB0C0541EA47
:102FA000045170BD41F480114FF0000E013C00F35C
:102FB000AB8014F1360FDEBF002001F0004170BD80
:102FC000C4F10004203C35DA0C341BDC04F1140499
:102FD000C4F1200500FA05F320FA04F001FA05F225
:102FE00040EA020001F0004221F0004110EBD370F2
:102FF00021FA04F642EB06015EEA430E08BF20EA1E
:10300000D37070BDC4F10C04C4F1200500FA04F3C0
:1030100020FA05F001FA04F240EA020001F0004152
:1030200010EBD37041F100015EEA430E08BF20EAC5
:10303000D37070BDC4F1200500FA05F24EEA020E0D
:1030400020FA04F301FA05F243EA020321FA04F03C
:1030500001F0004121FA04F220EA020000EBD370F3
:103060005EEA430E08BF20EAD37070BD94F0000FF3
:103070000FD101F00046400041EB010111F4801F27
:1030800008BF013CF7D041EA060195F0000F18BFD8
:10309000704703F00046520043EB030313F4801F14
:1030A00008BF013DF7D043EA0603704794EA0C0FCE
:1030B0000CEA135518BF95EA0C0F0CD050EA4106E4
:1030C00018BF52EA4306D1D181EA030101F0004161
:1030D0004FF0000070BD50EA410606BF1046194689
:1030E00052EA430619D094EA0C0F02D150EA013695
:1030F00013D195EA0C0F05D152EA03361CBF1046D6
:1031000019460AD181EA030101F0004141F0FE4174
:1031100041F470014FF0000070BD41F0FE4141F4F8
:10312000780170BD70B54FF0FF0C4CF4E06C1CEAF8
:1031300011541DBF1CEA135594EA0C0F95EA0C0FAD
:1031400000F0A7F8A4EB050481EA030E52EA033568
:103150004FEA013100F088804FEA03334FF0805589
:1031600045EA131343EA12634FEA022245EA1115B6
:1031700045EA10654FEA00260EF000419D4208BF67
:10318000964244F1FD0404F5407402D25B084FEA14
:103190003202B61A65EB03055B084FEA32024FF4C0
:1031A00080104FF4002CB6EB020E75EB030E22BF1D
:1031B000B61A754640EA0C005B084FEA3202B6EBDD
:1031C000020E75EB030E22BFB61A754640EA5C008C
:1031D0005B084FEA3202B6EB020E75EB030E22BF1C
:1031E000B61A754640EA9C005B084FEA3202B6EB1D
:1031F000020E75EB030E22BFB61A754640EADC00DC
:1032000055EA060E18D04FEA051545EA16754FEA3D
:1032100006164FEAC30343EA52734FEAC2025FEA5B
:103220001C1CC0D111F4801F0BD141EA00014FF0EA
:1032300000004FF0004CB6E711F4801F04BF0143BB
:103240000020B4F1FD0C88BFBCF5E06F3FF6AFAED7
:10325000B5EB030C04BFB6EB020C5FEA500C50F167
:10326000000041EB045170BD0EF0004E4EEA1131EA
:1032700014EB5C04C2BFD4EB0C0541EA045170BDF1
:1032800041F480114FF0000E013C90E645EA060E35
:103290008DE60CEA135594EA0C0F08BF95EA0C0F63
:1032A0003FF43BAF94EA0C0F0AD150EA01347FF4AB
:1032B00034AF95EA0C0F7FF425AF104619462CE782
:1032C00095EA0C0F06D152EA03353FF4FDAE1046E5
:1032D000194622E750EA410618BF52EA43067FF436
:1032E000C5AE50EA41047FF40DAF52EA43057FF4C6
:1032F000EBAE12E74FF0FF3C06E000BF4FF0010CD1
:1033000002E000BF4FF0010C4DF804CD4FEA410C34
:103310007FEA6C5C4FEA430C18BF7FEA6C5C1BD001
:1033200001B050EA410C0CBF52EA430C91EA030F82
:1033300002BF90EA020F0020704710F1000F91EADF
:10334000030F58BF994208BF90422CBFD8176FEAAD
:10335000E37040F0010070474FEA410C7FEA6C5C7B
:1033600002D150EA013C07D14FEA430C7FEA6C5C82
:10337000D6D152EA033CD3D05DF8040B704700BFAE
:103380008446104662468C461946634600E000BFFC
:1033900001B5FFF7B7FF002848BF10F1000F01BDCE
:1033A0004DF808EDFFF7F4FF0CBF012000205DF899
:1033B00008FB00BF4DF808EDFFF7EAFF34BF01201E
:1033C00000205DF808FB00BF4DF808EDFFF7E0FFB7
:1033D00094BF012000205DF808FB00BF4DF808ED08
:1033E000FFF7CEFF94BF012000205DF808FB00BF6F
:1033F0004DF808EDFFF7C4FF34BF012000205DF851
:1034000008FB00BF4FEA410C7FEA6C5C02D150EA36
:10341000013C0AD14FEA430C7FEA6C5C02D152EACC
:10342000033C02D14FF0000070474FF0010070479D
:103430004FEA410212F5001215D211D56FF47873DC
:10344000B3EB625212D94FEAC12343F0004343EA7F
:10345000505311F0004F23FA02F018BF404270475A
:103460004FF00000704750EA013005D111F00040E4
:1034700008BF6FF0004070474FF00000704700BF7A
:10348000DFF834D0002103E00C4B5B58435004318B
:103490000B480C4B42189A42F6D30B4A02E0002329
:1034A00042F8043B094B9A42F9D302F01DFB06F0A7
:1034B000ADFC00F0F5F9704700000320B0E00E0805
:1034C00000000020180D0020180D00206CAD012018
:1034D000FEE770B50D461646002404E0AFF3008009
:1034E000287001340135B442F8DB304670BD00006D
:1034F00008B503460B4A126842B10A4A10680344F1
:103500006A46934206D8074A136008BD054A064931
:103510001160F2E706F074FC0C2303604FF0FF30FB
:10352000F3E700BF340D002070AD01204FF0FF30F5
:1035300070474FF400534B600020704701207047E4
:103540000020704730B5B3B000F09CFA00212A4843
:1035500005F0E8FA10F0FF013DD1274D13A92868C6
:1035600005F058FABDF88420BDF88630234C229926
:10357000009121460FA807F067F9BDF89420BDF827
:1035800096302699009121460BA807F05DF948F284
:103590001003ADF80C300124ADF80E40ADF810402A
:1035A000ADF81240164B059305F030FA0690102343
:1035B000ADF81C30ADF81E40ADF82040ADF822400B
:1035C000104B0993104B0A9303A9286805F0B8FA29
:1035D00030B133B030BD020A0C4807F0B9F8BCE78F
:1035E000286805F09BFA10F0FF01F2D0020A0748A4
:1035F00007F0AEF8EDE700BF3C0D00207CD90E08C7
:1036000010D30D00849A0100680D00205CD90E08CB
:1036100010B50B4B01225A80D8605A82D961094CEF
:1036200003F110021946206805F084FB206805F0BC
:1036300075FA020AC1B2044807F08AF810BD00BF4B
:10364000000000203C0D00205CD90E0808B501F0F8
:10365000CFFD4FF05041012001F0CCFB012001F0E3
:103660000DFC4FF0FF3001F051FC0E49012001F03C
:103670002BFC0021012001F007FC0B49002001F088
:10368000B9FB002001F0FAFB01F004FD642002F018
:10369000A1FA4FF0FF3001F039FC642002F09AFAF1
:1036A00008BD00BF808000FF000013D008B50348AC
:1036B000034B036002F00CFB08BD00BF00AB012010
:1036C0000030024008B54FF4A071F02002F03EF93E
:1036D000012806D0054807F0AFF8642002F07AFA16
:1036E00008BD034807F0A8F8F7E700BFA8D90E08FF
:1036F00094D90E0838B50C4615464FF444620021A3
:1037000006F0C2FB2D226A6000232B6062602360FA
:1037100038BD000010B5141E03DA012801D00228BC
:1037200008D14FF0FF33A2B2074805F047F840B187
:10373000002010BD06F064FB092303604FF0FF304A
:10374000F7E72046F5E700BFB0AB012008B54FF022
:10375000FF3001F0DBFB1E4801F0C4FB1D4801F007
:10376000CBFB03231C4AFA21002001F02DFE03238A
:103770001A4A4FF48771002001F026FE1C231A46D6
:10378000F021D22001F034FC6FF4FE0001F0AAFB1E
:10379000322341224FF49171AF2001F043FC1048D5
:1037A00001F0A0FB0F4801F0A7FB03230E4A4FF4E2
:1037B0009671B32001F008FEED231A460221084657
:1037C00001F016FC4FF07F4001F08CFB08BD00BFFC
:1037D000800000FF60020020D4D90E08E0D90E0856
:1037E0000000FFFF68020020ECD90E0870B5A0B001
:1037F00030252A46002114A806F046FB00240F9429
:1038000010941194129413942A46214603A806F0AA
:103810003BFB0194204B1A6C42F080521A641B6CE3
:1038200003F080530193019B02941C4B1A6842F4ED
:1038300040421A601B6803F440430293029B022536
:10384000149501231793102318931A951B94082697
:103850001C96B4231D931E9507231F9314A803F0F1
:10386000B5FD03F073FD0F230F93109511944FF4E2
:10387000A05312934FF48053139305210FA803F024
:10388000DDFF03963223079309950C9403A804F0F7
:10389000A7F820B070BD00BF0038024000700040A3
:1038A00030B5ADF60C6D02F069F9FFF79FFFFFF739
:1038B000CDFE0021084601F02FF9FFF7F7FEFFF7D4
:1038C00041FEFFF7FFFE4FF44462002172A806F0AC
:1038D000DBFA002370936E93FFF738FF32E007EEB8
:1038E000902AF8EEE77A9FED5F7A67EE877AFDEE31
:1038F000E77A17EE902A07EE903AF8EEE77A67EE4D
:10390000877AFDEEE77A17EE900AC2EBC2018B00D0
:10391000034472A901EB83035349196002F1F001DA
:10392000D230FF2289B280B201F0B0FC0422A1881B
:10393000608801F041FE012002F04CF9002001F006
:103940002DF928BB494C204602F01EF82388002B95
:10395000F1D06388A3F10B0292B2DA2A05D8A288CB
:10396000A2F10B0189B2DA29B9D9B03B9BB23E2B47
:10397000E1D83E4B9B88A3F223139BB2302BDAD8BD
:10398000FFF7E4FE6EAA70A972A8FFF7B3FED2E7B4
:10399000374806F0DDFE642002F01CF9012202A97E
:1039A00072A8FFF735FE00240DE09DED6E7AF4EE6F
:1039B000C77AF1EE10FA05DD2E4B53F824306F93E1
:1039C000CDED6E7A0134632C1FDC02AB03EB840572
:1039D0002868FEF7FBFF02460B462146264806F004
:1039E000B7FE9DED707AD5ED007AB4EEE77AF1EE90
:1039F00010FADAD5719B6F938DED6E7ACDED707AFA
:103A00001C4B53F824307193DCE7719D1B4C70986C
:103A1000FEF7DCFFCDE900012A4621466AA806F040
:103A200013FF6F9D6E98FEF7D1FFCDE900012A4686
:103A3000214666A806F008FF114801F05DFA03234D
:103A40006AAAFA21462001F0BFFC032366AA4FF4BC
:103A50008771462001F0B8FC6EAA70A972A8FFF722
:103A600049FE6FE7EFEEEE3DEC51783FA0AA012052
:103A7000BCD90E0820000020F4D90E0808DA0E0880
:103A80006002002008B50848084B03604FF4E1339A
:103A9000436000238360C36003610C224261836141
:103AA000C36104F05CFE08BDB0AB01200010014012
:103AB0002E4B1B6803B170472DE9F04186B04FF0E3
:103AC00001082A4BC3F8008000240094284B9A6B0D
:103AD00042EA08029A639B6B03EA08030093009B87
:103AE0004FF63F030193022702970394032604969F
:103AF0000C25059501A91F4802F08CFBCDF8048028
:103B0000029703940496059501A91B4802F082FBD5
:103B100048F233130193029703940496059501A983
:103B2000164802F077FB4FF68373019302970394D4
:103B30000496059501A9124802F06CFB4CF2037340
:103B40000193029703940496059501A90D4802F08C
:103B500061FB60230193029703940496059501A9E4
:103B6000094802F057FB06B0BDE8F081ECA7012040
:103B700000380240001402400008024000180240D1
:103B800000100240000C02400004024000B583B067
:103B9000002100910C4B5A6C42F480425A645A6CDA
:103BA00002F480420092009A01911A6C42F0805215
:103BB0001A641B6C03F080530193019B072002F0F1
:103BC0001DF803B05DF804FB003802400268094BA1
:103BD0009A4200D0704782B000230193064B1A6BC3
:103BE00042F480521A631B6B03F480530193019BD0
:103BF00002B0704700300240003802400268094BB2
:103C00009A4200D0704782B000230193064B1A6B92
:103C100042F400021A631B6B03F400030193019B3F
:103C200002B0704700B00240003802402DE9F04178
:103C300088B00023039304930593069307930268C7
:103C4000204B9A4202D008B0BDE8F08100250095D3
:103C50001D4C236B43F004032363236B03F0040325
:103C60000093009B0195236B43F001032363236BB7
:103C700003F001030193019B4FF4007303934FF092
:103C80001208CDF81080012705970426079603A98E
:103C90000E4802F0BFFA4FF480730393CDF8108002
:103CA00005970695079603A9094802F0B3FA02950D
:103CB000236C43F400032364236C03F40003029396
:103CC000029BC0E7005C0040003802400008024050
:103CD0000000024008B50268094B9A4200D008BDB6
:103CE000084A136C23F4000313644FF40071064870
:103CF00002F080FB4FF48071044802F07BFBEEE79A
:103D0000005C004000380240000802400000024011
:103D10002DE9F0418CB000230793089309930A938F
:103D20000B930268564B9A4202D00CB0BDE8F0816A
:103D30000024009403F550435A6C42F080625A64A8
:103D40005A6C02F080620092009A01941A6B42F061
:103D500020021A631A6B02F020020192019A029467
:103D60001A6B42F001021A631A6B02F0010202920E
:103D7000029A03941A6B42F002021A631A6B02F061
:103D800002020392039A04941A6B42F040021A63EF
:103D90001A6B02F040020492049A05941A6B42F0E6
:103DA00004021A631A6B02F004020592059A069443
:103DB0001A6B42F008021A631B6B03F008030693A8
:103DC000069B4FF480630793022508950E260B96F9
:103DD00007A92C4802F01EFA41F6580307930895EC
:103DE00009940A940B9607A9274802F013FA0323B3
:103DF0000793089509940A944FF00908CDF82C8090
:103E0000224F07A9384602F005FA4FF47063079372
:103E1000089509940A940B9607A9384602F0FAF916
:103E20004FF40C630793089509940A940B9607F5D1
:103E3000A05707A9384602F0EDF94FF498630793AD
:103E4000089509940A940B9607A9114802F0E2F923
:103E500048230793089509940A940B9607A90D48DF
:103E600002F0D8F94FF4A0530793089509940A94E7
:103E7000CDF82C8007A9384602F0CCF955E700BFF1
:103E800000680140001402400000024000040240AB
:103E900000080240000C024000B589B000230393E3
:103EA00004930593069307930268144B9A4202D039
:103EB00009B05DF804FB0021019103F568435A6CD9
:103EC00042F480125A645A6C02F480120192019AF0
:103ED00002911A6B42F020021A631B6B03F020035D
:103EE0000293029B4FF46073039302230493052310
:103EF000079303A9024802F08DF9D9E70050014069
:103F00000014024008B50268074B9A4200D008BD71
:103F1000064A536C23F4801353644FF460710448D1
:103F200002F068FAF3E700BF005001400038024099
:103F30000014024000B589B0002303930493059355
:103F400006930793026803F1804303F588339A428E
:103F500002D009B05DF804FB0021019103F5943310
:103F60005A6C42F010025A645A6C02F0100201922C
:103F7000019A02911A6B42F001021A631B6B03F063
:103F800001030293029B4FF4C06303930223049343
:103F900001230593032306930723079303A90248EC
:103FA00002F038F9D5E700BF0000024008B5FFF77E
:103FB0007FFD08BD7047FEE7FEE7FEE7FEE77047BE
:103FC0007047704708B501F0F3FD08BDF020704759
:103FD0004FF4A070704708B500F06EFE08BD08B53C
:103FE0002920FFF7F8FF08BD08B52820FFF7F3FFE9
:103FF00008BD08B500F044FE08BD08B500F0DAFDC4
:10400000CA20FFF7E8FFC320FFF7F3FF0820FFF700
:10401000F0FF5020FFF7EDFFCF20FFF7DCFF00207F
:10402000FFF7E7FFC120FFF7E4FF3020FFF7E1FFD4
:10403000ED20FFF7D0FF6420FFF7DBFF0320FFF741
:10404000D8FF1220FFF7D5FF8120FFF7D2FFE8202D
:10405000FFF7C1FF8520FFF7CCFF0020FFF7C9FF66
:104060007820FFF7C6FFCB20FFF7B5FF3920FFF719
:10407000C0FF2C20FFF7BDFF0020FFF7BAFF342060
:10408000FFF7B7FF0220FFF7B4FFF720FFF7A3FF0A
:104090002020FFF7AEFFEA20FFF79DFF0020FFF78B
:1040A000A8FF0020FFF7A5FFB120FFF794FF002035
:1040B000FFF79FFF1B20FFF79CFFB620FFF78BFF4A
:1040C0000A20FFF796FFA220FFF793FFC020FFF71B
:1040D00082FF1020FFF78DFFC120FFF77CFF10202B
:1040E000FFF787FFC520FFF776FF4520FFF781FF29
:1040F0001520FFF77EFFC720FFF76DFF9020FFF729
:1041000078FF3620FFF767FFC820FFF772FFF22025
:10411000FFF761FF0020FFF76CFFB020FFF75BFFA8
:10412000C220FFF766FFB620FFF755FF0A20FFF712
:1041300060FFA720FFF75DFF2720FFF75AFF04204D
:10414000FFF757FF2A20FFF746FF0020FFF751FF38
:104150000020FFF74EFF0020FFF74BFFEF20FFF797
:1041600048FF2B20FFF737FF0020FFF742FF00201A
:10417000FFF73FFF0120FFF73CFF3F20FFF739FF2C
:10418000F620FFF728FF0120FFF733FF0020FFF79D
:1041900030FF0620FFF72DFF2C20FFF71CFFC82063
:1041A00000F0CEFD2620FFF716FF0120FFF721FFCC
:1041B000E020FFF710FF0F20FFF71BFF2920FFF77C
:1041C00018FF2420FFF715FF0C20FFF712FF0E2029
:1041D000FFF70FFF0920FFF70CFF4E20FFF709FF45
:1041E0007820FFF706FF3C20FFF703FF0920FFF7C9
:1041F00000FF1320FFF7FDFE0520FFF7FAFE172052
:10420000FFF7F7FE1120FFF7F4FE0020FFF7F1FEA5
:10421000E120FFF7E0FE0020FFF7EBFE1620FFF79E
:10422000E8FE1B20FFF7E5FE0420FFF7E2FE112069
:10423000FFF7DFFE0720FFF7DCFE3120FFF7D9FE96
:104240003320FFF7D6FE4220FFF7D3FE0520FFF70D
:10425000D0FE0C20FFF7CDFE0A20FFF7CAFE282073
:10426000FFF7C7FE2F20FFF7C4FE0F20FFF7C1FEA8
:104270001120FFF7B0FEC82000F062FD2920FFF7F3
:10428000AAFE2C20FFF7A7FE08BD08B500F030FD00
:1042900008BD08B500F08EFC0321D320FFF7F5FF21
:1042A00080B208BD0023012B06D8054AD25C8242A9
:1042B00003D00133DBB2F6E7FF231846704700BF97
:1042C000F4A7012008B52AB9CAB21121C0B200F082
:1042D00043FD08BDCAB21021C0B200F03DFDF8E7B1
:1042E00010B5C4B202220321204600F035FD0A2099
:1042F00000F03EFD00220321204600F02DFD0220AB
:1043000000F036FD10BD000010B50446FFF7CAFFEF
:10431000FF2800D010BD0020FFF7C4FF0128F9D806
:10432000034B1C5400F010FD2046FFF7D9FFF1E7C6
:10433000F4A7012038B5044600F006FDE4B20021E0
:10434000204600F00DFD05020121204600F008FD89
:1043500000B2284380B238BD10B50C461221C0B25D
:1043600000F0FEFCE4B2204010BD10B50C460D215B
:10437000C0B200F0F5FCE4B2204010BD10B5C4B2EC
:104380004021204600F0ECFC10F0800F0CD10122FF
:104390004B21204600F0E0FC00224B21204600F09B
:1043A000DBFC0023184610BD4C21204600F0D8FC51
:1043B00003460028F6D00123F4E770B582B00E461C
:1043C0001546C4B204230DEB0302D721204600F0AA
:1043D000CBFC9DF804209DF805301B0443EA0263E2
:1043E0009DF8062043EA02239DF8072013431A0D87
:1043F0003280C3F30B232B8001224B21204600F097
:10440000ABFC00224B21204600F0A6FC02B070BDA0
:1044100010B5C4B20921204600F0A2FC40F0010210
:10442000D2B20921204600F097FC10BD10B5C4B2ED
:104430000921204600F094FC00F0FE0209212046EC
:1044400000F08AFC10BD38B50C46C5B20A212846DA
:1044500000F086FC40EA0402D2B20A21284600F0AD
:104460007BFC38BD10B5044600F072FC802120466C
:10447000FFF7E9FF2046FFF7CBFF10BD10B504465C
:1044800000F066FC1F212046FFF7DDFF2046FFF706
:10449000BFFF10BD38B50C46C5B20A21284600F052
:1044A0005FFC20EA0402D2B20A21284600F054FC44
:1044B00038BD10B50446FFF7B9FF80212046FFF74D
:1044C000E9FF10BD10B50446FFF7B0FF1F212046DD
:1044D000FFF7E0FF10BD38B50D46C4B209212046F4
:1044E00000F03EFC00F0FB022A430921204600F0C8
:1044F00033FC38BD38B50D46C4B20921204600F062
:104500002FFC00F0FD022A430921204600F024FC84
:1045100038BD10B50C460B21C0B200F021FC204084
:1045200010BD08B51F21FFF7F4FF08BD08B50A4606
:104530000B21C0B200F010FC08BD38B504460D4692
:104540008021FFF7F3FFE4B2EDB22A460D212046A9
:1045500000F002FC2A461421204600F0FDFB2A460A
:104560001521204600F0F8FB2A461621204600F0CF
:10457000F3FB38BD08B51F21FFF7D8FF08BD70B5A4
:104580000C461646C5B21321284600F0E9FB3EB999
:1045900020EA0402D2B21321284600F0DDFB70BDF0
:1045A000E2B20243D2B2F6E738B50C46C5B21721E3
:1045B000284600F0D5FBE4B20443E2B217212846B6
:1045C00000F0CAFB38BD70B504460E46C5B20421E2
:1045D000284600F0C5FB00F0FA020421284600F04E
:1045E000BBFBF1B22046FFF7DFFF70BD38B50C46CC
:1045F000C5B21721284600F0B3FB20EA0402D2B26C
:104600001721284600F0A8FB38BD70B50646C4B295
:104610000421204600F0A4FB054600F0FB02042123
:10462000204600F099FBF0213046FFF7DFFF05F050
:10463000F8020421204600F08FFB49222021204669
:1046400000F08AFB022000F093FB0122212120468A
:1046500000F082FB9A224121204600F07DFB0122DE
:104660004A21204600F078FB01224B21204600F031
:1046700073FB00224B21204600F06EFB01225621E5
:10468000204600F069FB01225821204600F064FB1F
:1046900001224021204600F05FFBFF220B21204633
:1046A00000F05AFB022000F063FB70BD2DE9F041E1
:1046B0000E461746C5B21621284600F051FB80462B
:1046C0001521284600F04CFBF44364B204EA0802CA
:1046D000D2B20440E4B217F0010F01D0F3B21A4392
:1046E00017F0020F01D0F6B234431621284600F02D
:1046F00033FB22461521284600F02EFBBDE8F08151
:1047000038B50C46C5B20C21284600F029FBE4B2AE
:104710000443E2B20C21284600F01EFB38BD38B538
:1047200004460D46052A64D8DFE802F003080D238D
:10473000394E0022FFF723FF002038BD0122FFF78A
:104740001EFF0020F9E7FFF78DFE29462046FFF700
:10475000D7FF002229462046FFF711FF02212046FD
:10476000FFF7C8FE022229462046FFF79FFF0020E0
:10477000E3E7FFF777FE29462046FFF7C1FF002257
:1047800029462046FFF7FBFE02212046FFF7B2FE36
:10479000012229462046FFF789FF0020CDE7FFF7D9
:1047A00061FE29462046FFF7ABFF0022294620463E
:1047B000FFF7E5FE00212046FFF79CFE0021204682
:1047C000FFF789FE0020B8E7FFF74CFE2946204698
:1047D000FFF796FF002229462046FFF7D0FE002172
:1047E0002046FFF787FE04212046FFF774FE0020D5
:1047F000A3E71046A1E7000000B589B000210191B0
:10480000124B5A6C42F480125A645A6C02F48012B1
:104810000192019A02911A6B42F020021A631B6BFB
:1048200003F020030293029B4FF46073039302236F
:1048300004930593012306930523079303A90448D2
:1048400001F0E8FC09B05DF804FB00BF003802404D
:104850000014024002682A4B9A4200D0704730B5DB
:1048600089B000250095274C236B43F00403236394
:10487000236B03F004030093009B0195236B43F02B
:1048800001032363236B03F001030193019B4FF4A6
:104890008073039312230493059502230693042344
:1048A000079303A9184801F0B5FC4FF40073039374
:1048B00003A9164801F0AEFC0295236C43F40003F3
:1048C0002364236C03F400030293029B236A43F4E2
:1048D00000032362236A23F4000323622A460F2184
:1048E000482001F09DF9482001F0CEF92A460F2119
:1048F000492001F095F9492001F0C6F909B030BD11
:10490000005C004000380240000002400008024005
:1049100010B586B0002400940F4B1A6B42F00102D0
:104920001A631B6B03F001030093009B4FF40043D9
:104930000193012303930494084B029301A90848AF
:1049400001F068FC22460F21282001F069F9282097
:1049500001F09AF906B010BD0038024000002110A5
:104960000000024010B5104803F02BFD00B110BD4F
:104970000D4C0E4B23601823E3610023A360636199
:104980002361A3620722E262E36023624FF40072B4
:10499000A26163624FF4827363602046FFF72CFFCD
:1049A000204603F023FAE2E7F8A701200050014077
:1049B00008B5034803F05AFAFFF7D4FF08BD00BF5B
:1049C000F8A7012000B583B002A921F8020D064B1B
:1049D0001B680122054803F05FFA10B903B05DF8C7
:1049E00004FBFFF7E5FFF9E73C020020F8A70120F0
:1049F00000B583B0074B1B68024601A9064803F0C7
:104A00002FFC18B9019803B05DF804FBFFF7D0FF45
:104A1000F8E700BF3C020020F8A7012010B50D48C0
:104A200002F0C4FA00B110BD0A4C0B4B23600B4BD3
:104A300063600023A360E3604FF4804222616361FE
:104A4000A361E36123622046FFF704FF204601F0E3
:104A5000A7FFE8E764AC0120005C0040A0860100ED
:104A600008B5034802F06CF8FFF7D8FF08BD00BF97
:104A700064AC012010B586B006AC04F8012D084BDB
:104A80005B6802930123019300940A46014605489E
:104A900002F070F808B906B010BDFFF7E1FFFAE7C1
:104AA0003C02002064AC012000B587B006AA0023B8
:104AB00002F8013D094B5B680293012301930092C8
:104AC0000A460146064802F009F920B99DF8170088
:104AD00007B05DF804FBFFF7C3FFF7E73C020020D7
:104AE00064AC012010B584B0094C64680294019351
:104AF000009201230A460146064802F0EFF810B979
:104B0000002004B010BDFFF7ABFF0120F9E700BFA4
:104B10003C02002064AC012030B587B00C4605464D
:104B200058B9002300931A4B1A6B42F001021A6322
:104B30001B6B03F001030093009B1CB1012C10D0F0
:104B400007B030BD01230193002302930223039396
:104B50000493104B03EB850301A9186901F05AFB7C
:104B6000ECE701230193002403940B4B0293094BC0
:104B700003EB850501A9286901F04CFB22460F21B2
:104B8000062001F04DF8062001F07EF8D8E700BFBE
:104B9000003802403C0200200000111008B5044B10
:104BA00003EB80000121006901F0C2FC08BD00BFD9
:104BB0003C0200202F4B93F8583003B170472DE989
:104BC000F04188B001262B4B83F8586000250095F2
:104BD000294C236B43F008032363236B03F0080382
:104BE0000093009B4FF400530393049605954FF0F8
:104BF0000208CDF81880214F03A9384601F00AFBBE
:104C00000195236B43F008032363236B03F0080330
:104C10000193019B4FF48053039304960595CDF8BF
:104C2000188003A9384601F0F5FA0295236B43F08A
:104C300004032363236B03F004030293029B042702
:104C4000039704960595CDF81880A4F5405403A960
:104C5000204601F0DFFA2A463946204601F06FFC73
:104C600032463946204601F06AFCFFF77BFE08B069
:104C7000BDE8F081F8A7012000380240000C024096
:104C800038B5054601224FF40051094801F057FCA0
:104C9000084C00220421204601F051FC2846FFF771
:104CA00091FE01220421204601F049FC38BD00BFDD
:104CB000000C02400008024038B5054600224FF4BF
:104CC0000051094801F03BFC084C00220421204619
:104CD00001F035FC2846FFF775FE0122042120462D
:104CE00001F02DFC38BD00BF000C0240000802405E
:104CF000F8B507460E46104C00220421204601F06C
:104D00001EFC0E4D00224FF40051284601F017FC06
:104D10003846FFF757FE3046FFF76AFE0646012287
:104D20004FF40051284601F00AFC012204212046DC
:104D300001F005FC3046F8BD00080240000C0240BE
:104D400008B500F047FF08BD08B5FFF767FE08BDCE
:104D500008B5FFF7DDFD08BD08B5FFF78BFE08BD00
:104D600008B5FFF7A1FE08BD08B5FFF7BBFE08BDFB
:104D700008B500F02FFF08BDF0B583B004460D461E
:104D800016461F4611484FF44033436000238360AA
:104D9000089BC3600E4B036001F0F1F808B103B04B
:104DA000F0BD2146094801F0D3F90028F7D100975A
:104DB00033462A460999054801F00EF90028EED13C
:104DC0000A21024801F024F9E9E700BF54A80120B4
:104DD00000B0024008B5024B1B689B6A984708BDAB
:104DE00060AD012008B5024B1B68DB6A984708BD1F
:104DF00060AD012070B58EB005460E4600240194CA
:104E0000FFF7E8FF02900394FFF7ECFF049005948E
:104E10000A96FF23069307948DF834408DF83540A9
:104E20008DF836404FF4C063089307230993FFF7CA
:104E3000D1FF0B90FFF7D6FF0C900D4C2A4601A92D
:104E4000204602F0F9F90B4A680041198B0013441F
:104E50004FF0FF31596408499964284483001A448B
:104E60004FF07F431364204602F056FA0EB070BD37
:104E7000B8AC012054A8012050020020014B9865D5
:104E8000704700BF54A80120012910D00D4B1B68AA
:104E900003EBC010D0F8843023F00103C0F8843055
:104EA000084B1A68536A43F0010353627047054B7D
:104EB0001B6803EBC010D0F8843043F00103C0F846
:104EC0008430EDE7B8AC012038B50546044C024605
:104ED000204602F0DFF92946204602F0FFF938BDEE
:104EE000B8AC0120034A936D03EB430399000A44D5
:104EF0001064704754A80120034A936D03EB4303E9
:104F000099000A449064704754A80120F0B583B01A
:104F100007460B4B9C6D0B4A342303FB0423DD6DCA
:104F2000FFF758FF0646FFF75DFF01970023009348
:104F30000346324629462046FFF71EFF03B0F0BD68
:104F400054A80120B8AC01202DE9F04182B0804680
:104F50000D4616460E4CA36D0E4A342101FB032369
:104F6000DF6DFFF737FF00FB0581A06D00EB40020E
:104F700093001C44236C01930023009301233246C9
:104F800007EB8101FFF7F8FE02B0BDE8F08100BF3A
:104F900054A80120B8AC01202DE9F04182B0804630
:104FA0000E461746104CA36D104A342101FB032313
:104FB000DD6DFFF70FFF00FB068005EB8005A66D9A
:104FC000FFF708FFA36D03EB43039A001444236C1F
:104FD0000193013800903B46012229463046FFF7F5
:104FE000CBFE02B0BDE8F08154A80120B8AC01208E
:104FF000F8B504460D4617461E46FFF7A5FFA9194A
:105000003A4689B22046FFF79FFF3246294620469E
:10501000FFF7C2FFE0193246294680B2FFF7BCFF16
:10502000F8BD00002DE9F04383B080460F461546D9
:105030001E46164CA36D03EB43039A002244106CEA
:10504000FFF750FFA36D124A342101FB0323D3F86D
:105050005C90FFF7BFFE00FB078009EB8009D4F8E6
:105060005880FFF7B7FEA36D03EB43039A00144487
:10507000236C0193401B009033462A464946404624
:10508000FFF77AFE03B0BDE8F08300BF54A801200B
:10509000B8AC012008B5034B1B689B6803B1984767
:1050A00008BD00BF60AD012030B58FB00022019275
:1050B000484B596C41F080615964596C01F0806132
:1050C000019101990292196B41F400011963196B66
:1050D00001F40001029102990392196B41F0010160
:1050E0001963196B01F00101039103990492196B83
:1050F00041F002011963196B01F002010491049956
:105100000592196B41F004011963196B01F0040158
:10511000059105990692196B41F008011963196B05
:1051200001F00801069106990792196B41F02001E0
:105130001963196B01F02001079107990892196B07
:1051400041F0400119631B6B03F040030893089B77
:1051500041F65803099302230A930B920C930E23F2
:105160000D9309A91C4801F055F84FF47063099399
:105170001A4D09A9284601F04DF84FF49863099398
:1051800009A9174801F046F84823099309A91548C9
:1051900001F040F84FF48063099309A9124801F027
:1051A00039F84FF40C630993104C09A9204601F01B
:1051B00031F80323099309230D9309A9284601F027
:1051C00029F84FF4A053099309A9204601F022F8C9
:1051D0000FB030BD00380240000002400004024021
:1051E00000080240000C0240001402400018024077
:1051F00038B5204C204B2360092363610123A36150
:105200001D23E3610323236240F20D13636240F226
:105210004313A36240F21713E36240F24713236380
:10522000002584F8365084F8345084F835501348FB
:105230000823C365C023C366042343674FF40033C8
:10524000C0F880305C3002F0CBFB6560A560E560A3
:105250002561FFF729FF204601F074FF084B094A3A
:1052600013601B68984700F029FB0748FFF744FECE
:10527000284638BDB8AC01200068014054A8012080
:10528000B001002060AD012050020020F8B50746B3
:105290000C461646064B9B6D064A342101FB032340
:1052A000DD6DFFF797FD00FB047045F82060F8BD49
:1052B00054A80120B8AC01202DE9F04F83B08146FD
:1052C0000F460092334A936D03EB430399000A445F
:1052D000936CDA8801929D8805F1070B4FEAEB0B7E
:1052E0004FEACB085FFA88F8EBB2A8EB03085FFA45
:1052F00088F84FF0000A33E0009AD65C002413E0EF
:105300000099CB5C567846EA0326F7E7214A936D6D
:1053100003EB430399000A4409EB0400526C39463D
:1053200080B2FFF7B3FF0134A54215D92B1B4344CC
:10533000013B012202FA03F33342E7D0154A936D91
:1053400003EB430399000A4409EB0400126C39464D
:1053500080B2FFF79BFFE6E70137BFB20AF1010A0F
:10536000019B534512D90AFB0BF3009A1A44BBF177
:10537000010FC1D0BBF1020FC2D00099CB5C5678AF
:10538000360246EA034693781E43B7E703B0BDE80A
:10539000F08F00BF54A8012038B50A4CA36D03EB71
:1053A00043039D002C44A36C1C68A2F12005DA88FD
:1053B00002FB05F29B880733DB1003FB0242FFF779
:1053C0007BFF38BD54A801202DE9F04106460F4669
:1053D000154698461346002401E0013413465A1C32
:1053E0001B78002BF9D1FFF7F5FC274A936D03EBEF
:1053F000430399000A44936C9A88B0FBF2F0B8F129
:10540000010F04D0B8F1020F09D0002420E0031BE3
:1054100003FB02F3C3F34F031E44B6B2F5E7001BD0
:1054200010FB02F016FA80F6B6B2EEE715F8012B83
:1054300039463046FFF7B0FF134A936D03EB430341
:1054400099000A44936C9B881E44B6B20134A4B2FE
:1054500095F80080FFF7BEFC0B4A936D03EB430306
:1054600099000A44936C9B8803FB140080B2984215
:1054700034BF00200120B8F1000F08BF0020002831
:10548000D4D1BDE8F08100BF54A801202DE9F04F30
:1054900085B082468B465300C3F1030300939146C7
:1054A0004FF0000805E003EB88030633009308F192
:1054B0000108C8457AD81FFA88F505EB0A0398B2A7
:1054C0001FFA89F6ABEB0607BFB23A4CA36D03EBAC
:1054D00043039A002244126C39460190FFF7D6FE2E
:1054E000AAEB05039BB21846A36D03EB43039A0096
:1054F0002244126C39460290FFF7C8FE06EB0A03FD
:105500009BB21846ABEB0507BFB2A36D03EB430399
:105510009A002244126C39460390FFF7B7FEAAEBBB
:1055200006039BB21846A36D03EB43039A00224483
:10553000126C39460746FFF7A9FE5E44B6B2A36D6A
:1055400003EB43039A002244126C31460198FFF7A3
:105550009DFEA36D03EB43039A002244126C314677
:105560000298FFF793FE5D44ADB2A36D03EB4303D6
:105570009A002244126C29460398FFF787FEA36D18
:1055800003EB43039A001444226C29463846FFF784
:105590007DFE009B002B86DBA8EB0903009A02EB43
:1055A00083030A33009309F1FF3980E705B0BDE8B2
:1055B000F08F00BF54A801202DE9F04F83B0824640
:1055C0008946154601925600C6F103062E4A936D90
:1055D00003EB430399000A44106CFFF783FC00249B
:1055E00033E0AFB2AAEB070B1FFA8BFB1FFA84F86C
:1055F0007F00BFB208EB09013A4689B25846FFF76F
:10560000A3FCA9EB08013A4689B25846FFF79CFC77
:105610001FE0A7B2AAEB070B1FFA8BFB1FFA85F856
:105620007F00BFB2A9EB08013A4689B25846FFF79E
:105630008BFC08EB09013A4689B25846FFF784FC17
:1056400009E006EB840606360134AC420BD8002D87
:10565000C7D1002CDDD1002EF3DB631B06EB8306E4
:105660000A36013DF0E7084A936D03EB43039900C6
:105670000A44106CFFF736FC019A49465046FFF782
:1056800005FF03B0BDE8F08F54A801202DE9F047D5
:1056900082B082464FF00008CDF80480214C0126EC
:1056A000266008276760A660C4F80C8004F1100526
:1056B0004FF6FF722146284602F0E5FA304600F028
:1056C00089FA022323606760A660C4F80C804FF655
:1056D000FF722146284602F0D6FA03232360676052
:1056E0004FF00409C4F80890C4F80C804FF6FF721C
:1056F0002146284602F0C7FA4FF40C730193C4F810
:1057000000906760A660019BE3604FF6FF72214640
:10571000284602F0B8FA5146284602F0D1FA02B003
:10572000BDE8F087E0A80120002800F0B48070B543
:105730008EB0064600240194574B9A6B42F001024A
:105740009A639A6B02F001020192019A02941A6B19
:1057500042F480021A631A6B02F480020292029AE7
:1057600003941A6B42F002021A631A6B02F00202EF
:105770000392039A04941A6B42F004021A631A6BA0
:1057800002F004020492049A05941A6B42F0080293
:105790001A631A6B02F008020592059A06941A6BB6
:1057A00042F010021A631A6B02F010020692069A77
:1057B00007941A6B42F020021A631A6B02F020025F
:1057C0000792079A08941A6B42F040021A631B6B07
:1057D00003F040030893089B02230A930C930B9455
:1057E0000C230D930EAD602345F8143D29462B483C
:1057F00000F010FD012309932946294800F00AFD15
:105800004CF2037309932946264800F003FD4FF636
:10581000837309932946244800F0FCFC4FF63F03AC
:1058200009932946214800F0F5FC48F23313099307
:1058300029461F4800F0EEFC1E4B9C648022DA646F
:105840004FF400721A654FF480625A654FF480522B
:105850009A654FF48042DA651C664FF400325A664E
:105860009C660322DA661C675C671D46124A45F88F
:10587000442F3563DE67284600F008FB284600F019
:105880009FFA22460F21382000F0CAF9382000F094
:10589000FBF90EB070BD70470038024000040240B2
:1058A00000080240000C02400010024000140240B8
:1058B00000180240E0A801201064024038B5204CD6
:1058C000204B23610223C4F8A4300721C4F8A81098
:1058D0000422C4F8AC20C4F8B010C4F8B430C4F842
:1058E000B830C4F8BC30012363610021A161E261DA
:1058F00010232362402363624FF4C073A362E1620A
:105900004FF40063236361634FF40053A36304F116
:1059100010052846FFF708FF04F1A401284602F00D
:1059200093F948B9084B00221A7040F26A50FFF709
:10593000ADFE054B187838BD034B01221A70F4E711
:10594000E0A80120400100A07802002010B50C4B17
:10595000188059800B4B5B688220984740F61103F2
:1059600098420BD1064C074B63601B688220984716
:105970006368DB6882209847002010BD0120FCE7A7
:1059800000AA01201402002030B583B00446324B37
:105990005B681B698220984780B2208000284AD02B
:1059A0002D4B5B685B6901AA0DF1060182209847C7
:1059B000BDF80430A3F5B4739BB2284AA2FB0323BD
:1059C000DB0805D0244A52889A4201D2531E9BB26A
:1059D000BDF8062040F6B8318A422ED8C2F5716271
:1059E0000E32ADF80620BDF806201D49A1FB0212BB
:1059F000D20805D018490988914201D24A1E92B2B4
:105A00001046154989688A421DD989B2521A92B244
:105A10001D461149C9688B4219D989B25B1A9BB2DC
:105A20001A44052A02DD0C4B9860DD600A4B9A6827
:105A30006280DB68A38003B030BDC2F56D620832BE
:105A4000ADF80620CFE789B28A1A92B2E0E789B2B0
:105A5000CB1A9BB2E4E700BF00AA0120A38B2EBAA9
:105A60008988888810B49408DFED1E7A22E090EDD2
:105A7000007AD1ED006A27EE267A77EE877A90EDEC
:105A8000017AD1ED016A27EE267A77EE877A90EDDA
:105A9000027AD1ED026A27EE267A77EE877A90EDC8
:105AA000037AD1ED036A27EE267A77EE877A013CF6
:105AB00010311030002CDAD102F003020AE090ED30
:105AC000007AD1ED006A27EE267A77EE877A013ADE
:105AD00004310430002AF2D1C3ED007A5DF8044BA2
